:1002510048656C6C6F0057656C636F6D6520746FDA
:08026100204368696E61210071
:1000970012027F7B417D017F011202C97BFF7A0239
:1000A70079517D037F011201F3750C027B427A00BF
:1000B7007D097F01120234750C027BA87AFF7D0B44
:1000C7007F01120115750C027BA57A007D017F0265
:1000D70012014F750C087BA57A007D047F0212017F
:1000E700887BDF7D0D7F021202C97B437D0E7F0275
:1000F7001202C97BFF7A0279577D107F011201F343
:0E0107007F181202BF7F207E0312026980F271
:06029300C2A58F80D2A776
:09029900007F027EC7DEFEDFFCDF
:0102A2002239
:0A02BF00C2A6120293C2A702029920
:10021600CFCDCFCECCCE1200427C007D0A1200425A
:04022600ED2430FF94
:0A022A00D2A6120293C2A7020299A5
:10027F007F381202BF7F0C1202BF7F061202BF7FB0
:04028F00010202BFA7
:1002A300EDBF0103148002243F4480FF1202BF22EA
:0A02C900AC031202A3AF0402022AE4
:0601F3008B088A09890A4D
:1001F9001202A3E4FDAB08AA09A90A8D827583003E
:0C020900120003FF600612022A0D80E9BB
:0102150022C6
:0C01C0007F0AEA24FFFDE434FFFC7E000F
:0801CC008E0F8F108C118D12B3
:1001D4007F017E00E4FBEBC39512E5116480F874A3
:0E01E4008098500AAC0FAD101200300B80E86E
:0101F20022EA
:040234008A0A8B0B9C
:100238001202A3AA0CEAD39400400D1201C0AC0A22
:08024800AD0B1202161A80ED45
:01025000228B
:100115001202A3C3EA64809480400B7F2B12022A4B
:100125008A0D8B0E800E7F2D12022AC3E49BF50EDD
:10013500E49AF50DAA0CEAD39400400D1201C0AC67
:090145000DAD0E1202161A80ED38
:01014E00228E
:04014F008A0A8B0B82
:100153001202A3AA0CEAD3940040297F101201C211
:10016300AC0AAD0BCFCDCFCECCCE120042EF540FA5
:10017300FEC3940AEE5004243080022437FF120297
:040183002A1A80D1E3
:010187002255
:040188008A0A8B0B49
:10018C001202A3AA0CEAD394004028EA24FFFDE44F
:10019C0034FFFC7F027E001201CCAC0AAD0BCFCD3C
:1001AC00CFCECCCE120042EF54012430FF12022AE3
:0301BC001A80D2D4
:0101BF00221D
:10026900EF1FAC0670011E4C600B007D027CC7DCE1
:05027900FEDDFC80EB3E
:01027E00225D
:030000000202B346
:0C02B300787FE4F6D8FD758112020097F8
:10000300BB010CE58229F582E5833AF583E02250B2
:1000130006E92582F8E622BBFE06E92582F8E222FC
:0D002300E58229F582E5833AF583E4932216
:10003000EF8DF0A4A8F0CF8CF0A428CE8DF0A42EE4
:02004000FE229E
:10004200BC000BBE0029EF8DF084FFADF022E4CCA2
:10005200F875F008EF2FFFEE33FEEC33FCEE9DEC6B
:10006200984005FCEE9DFE0FD5F0E9E4CEFD22EDB1
:10007200F8F5F0EE8420D21CFEADF075F008EF2FFB
:10008200FFED33FD4007985006D5F0F222C398FDEC
:050092000FD5F0EA2289
:00000001FF
