:10035A00414444522020434D4420204E554D003004
:0E036A00302020202030302020203030300085
:1001E6001203DF7BFF7A03795A7D017F0112033701
:1001F6007BFF7A0379697D017F021203371204714E
:10020600120412EF700612041FEF60F41204778FC7
:100216002B12047A8F2AE52BFB7A007518027D01D2
:100226007F02120293E52AFB7A007518027D077F8A
:1002360002120293E52AB415021529E52AB4090229
:100246000529E529FB7A007518037D0C7F02120348
:030256009680ADE2
:1003B300EF1FAC0670011E4C600B007D027CC7DC96
:0503C300FEDDFC80EBF3
:0103C8002212
:06040300C2A58F80D2A704
:080409007F027EEFDEFEDFFC46
:0104110022C8
:0A044E00C2A6120403C2A7020409AB
:10037800CFCDCFCECCCE1201917C007D0A12019157
:04038800ED2430FF31
:0A038C00D2A6120403C2A70204095E
:1003C900AE07BE0104ED148006BE0209ED243F44C8
:0603D90080FF12044E2219
:1003DF007F3812044E7F0C12044E7F0612044E7F9C
:0403EF000102044EB5
:0A045800AC031203C9AF0402038CC9
:060337008B148A158916E3
:10033D001203C9E4FDAB14AA15A9168D82758300AD
:0C034D00120152FF600612038C0D80E9C3
:010359002281
:0C0304007F0AEA24FFFDE434FFFC7E00C9
:080310008E198F1A8C1B8D1C45
:100318007F017E00E4FBEBC3951CE51B6480F87449
:0E0328008098500AAC19AD1A12017F0B80E8C4
:0103360022A4
:040396008A168B1721
:10039A001203C9AA18EAD39400400D120304AC163A
:0803AA00AD171203781A80ED73
:0103B2002228
:100259001203C9C3EA64809480400B7F2B12038C7C
:100269008A228B23800E7F2D12038CC3E49BF523F6
:10027900E49AF522AA21EAD39400400D120304ACB2
:0902890022AD231203781A80ED66
:010292002249
:040293008A168B1725
:100297001203C9AA18EAD3940040297F1012030653
:1002A700AC16AD17CFCDCFCECCCE120191EF540FF8
:1002B700FEC3940AEE5004243080022437FF120351
:0402C7008C1A80D13C
:0102CB002210
:0402CC008A268B27CC
:1002D0001203C9AA28EAD394004028EA24FFFDE4C7
:1002E00034FFFC7F027E00120310AC26AD27CFCD79
:1002F000CFCECCCE120191EF54012430FF12038CEB
:030300001A80D28E
:0103030022D7
:0B043800D288C289D2A8D2AFD2B8226D
:1003F3005389F0438901E4F58AF58CC28DC28C22BE
:0B044300AD07AC068C8CAF058F8A2241
:09046200AF8CEFFEAD8AEDFF2224
:06046B00EF24FF928C2239
:060471001203F30204383F
:0D041200E50F6006E4F50F7F01227F002258
:0D041F00E50D6006E4F50D7F01227F00224F
:03047700AF0C22A5
:03047A00AF0B22A3
:03000300020006F2
:10000600C0E0C0F0C083C082C0D075D000C000C0C0
:1000160001C002C003C004C005C006C007E50870E1
:100026000CFFFE1204437F0112046B8049E508644D
:100036000170491204628E098F0AE4FFFE1204431E
:10004600D3E50A94A6E509942E4010E50A948EE5B8
:100056000994325006750802020137D3E50A948CDA
:10006600E50994264010E50A9474E509942A500699
:10007600750D0102012F750801020137E5086402BA
:1000860060030201371204628E098F0AE4FFFE1232
:100096000443D3E50A9414E5099402402CE50A9436
:1000A600FCE50994055022E50E131313541F241082
:1000B600F8C000E6FFE50E5407FE7401A8060880A6
:1000C60002C333D8FCF45F8034D3E50A9432E509E1
:1000D60094044030E50A9402E509940C5026E50E96
:1000E600131313541F2410F8C000E6FFE50E54073F
:1000F600FE7401A806088002C333D8FC4FD000F670
:10010600050E8006750E00750801E50EC3942040A5
:1001160020750E00E511F4B5100FE513F4B51209BC
:1001260085100C85120B750F01E4FF12046B750820
:1001360000D007D006D005D004D003D002D001D01D
:0C01460000D0D0D082D083D0F0D0E032C6
:0300000002042CCB
:0C042C00787FE4F6D8FD75812B0201E614
:10015200BB010CE58229F582E5833AF583E0225062
:1001620006E92582F8E622BBFE06E92582F8E222AC
:0D017200E58229F582E5833AF583E49322C6
:10017F00EF8DF0A4A8F0CF8CF0A428CE8DF0A42E94
:02018F00FE224E
:10019100BC000BBE0029EF8DF084FFADF022E4CC52
:1001A100F875F008EF2FFFEE33FEEC33FCEE9DEC1B
:1001B100984005FCEE9DFE0FD5F0E9E4CEFD22ED61
:1001C100F8F5F0EE8420D21CFEADF075F008EF2FAB
:1001D100FFED33FD4007985006D5F0F222C398FD9C
:0501E1000FD5F0EA2239
:00000001FF
