:10000E00000400040004160218021906180219044E
:10001E001D04180C110211021606140216041904FE
:10002E00140C110412061102120419041108000214
:10003E0019021902190218061302130418041808DB
:10004E000004160218021906180219041D04180CD1
:10005E00110211021606140216041904140C0F02D2
:10006E00110212041902180419061B021B021D02AA
:10007E00190A190218021602160218041504160C93
:10008E0019021B021D061B021D0420041B0C140268
:10009E0014021906180219041D041D101602180266
:1000AE00190418041B021B021906140A1E041D044F
:1000BE001D0419041D0C1D042208200420041D0219
:1000CE001B021908000219021B0419021B021B0451
:1000DE0020041D0C1D04220820081D021B021908F5
:1000EE00000219021B0419021B061804160C000448
:0100FE00FF02
:10018B00204A0A0000F921F980F9E1FA36FA8CFAD3
:10019B00D8FB23FB68FBAAFBE9FC23FC5FFC8FFC71
:1001AB00C0FCEFFD1BFD45FD6CFD91FDB4FDD5FDC8
:1001BB00F4FE12FE2EFE47FE60FE78FE8EFEA2FEC1
:0D01CB00B6FEC9FEDAFEEBFEFAFF09FF17D3
:10021C0012024AE50890000E93FFF460208F090546
:10022C0008E5089375F07DA4FFAEF0120261050895
:0E023C00C28C7F057E00120261D28C80D62219
:03000B000201D916
:1001D900C0E0C0D075D000C000C004C005C006C0D2
:1001E90007E50925E0240AF8E6FE08E64E6015E56C
:1001F9000925E0240AF8E6FC08E6FDECF58CAF05D4
:100209008F8AB2A5D007D006D005D004D000D0D0AF
:03021900D0E03200
:10026100EF1FAC0670011E4C600B007D027CC7DCE9
:05027100FEDDFC80EB46
:010276002265
:10024A005389F0438901758A66758CFCC28DD28CFC
:07025A00D2A9D2AFC2B92204
:030000000200FFFC
:0C00FF00787FE4F6D8FD758153020146BD
:10010B0002021CE493A3F8E493A34003F68001F2EC
:10011B0008DFF48029E493A3F85407240CC8C333F5
:10012B00C4540F4420C8834004F456800146F6DFC4
:10013B00E4800B010204081020408090018BE47EC8
:10014B00019360BCA3FF543F30E509541FFEE493B9
:10015B00A360010ECF54C025E060A840B8E493A380
:10016B00FAE493A3F8E493A3C8C582C8CAC583CAAB
:10017B00F0A3C8C582C8CAC583CADFE9DEE780BE63
:0101D8000026
:00000001FF
