:1001DC0057726974652046696E697368656400209E
:1001EC0020202020202020202020202020005265AC
:1001FC0061642046696E6973686564002020202064
:0A020C0020202020202020202000C8
:10000300120416750C05AB23AA227D017F0112038E
:10001300CD12017B8F24E524B401150523E523705C
:10002300020522750C05FBAA227D017F011203CD77
:10003300E524B40216E523152370021522750C0579
:10004300AB23AA227D017F011203CD12017B8F24F2
:10005300E52464037040FCAD23FF12034A7F057E51
:10006300001203EAE522FD7C007F0112034A7F05AB
:100073007E001203EA7BFF7A0179DC7D017F0212A5
:10008300036E7FE87E031203EA7BFF7A0179EB7D3F
:10009300017F0212036EE52464046003020014FF6F
:1000A3001202F47522008F237F011202F4EFFEEE99
:1000B3004222750C05AB23AA227D017F011203CDD9
:1000C3007BFF7A0179FA7D017F0212036E7FE87E5E
:1000D300031203EA7BFF7A0279087D017F02120390
:0400E3006E02001495
:1003EA00EF1FAC0670011E4C600B007D027CC7DC5F
:0503FA00FEDDFC80EBBC
:0103FF0022DB
:10017B00E4F50820B1137F14FE1203EA30B1FD7FC2
:10018B00147E001203EA75080120B0147F147E0060
:10019B001203EA30B0FD7F147E001203EA750802E9
:1001AB0020B2147F147E001203EA30B2FD7F147E5E
:1001BB00001203EA75080320B3147F147E001203A8
:1001CB00EA30B3FD7F147E001203EA750804AF0812
:0101DB002201
:06042A00C2A58F80D2A7DD
:080430007F027EEFDEFEDFFC1F
:0104380022A1
:0A045100C2A612042AC2A70204305A
:10039100CFCDCFCECCCE1201267C007D0A12012614
:0403A100ED2430FF18
:0A03A500D2A612042AC2A7020430F7
:10040000AE07BE0104ED148006BE0209ED243F4490
:0604100080FF12045122DE
:100416007F381204517F0C1204517F061204517F5B
:04042600010204517A
:0A045B00AC03120400AF040203A575
:06036E008B088A09890AD0
:10037400120400E4FDAB08AA09A90A8D8275830062
:0C0384001200E7FF60061203A50D80E9DF
:01039000224A
:0C02C1007F0AEA24FFFDE434FFFC7E000D
:0802CD008E0D8F0E8C0F8D10B9
:1002D5007F017E00E4FBEBC39510E50F6480F874A5
:0E02E5008098500AAC0DAD0E1201140B80E88B
:0102F30022E8
:0403CD008A0A8B0B02
:1003D100120400AA0CEAD39400400D1202C1AC0A27
:0803E100AD0B1203911A80ED2F
:0103E90022F1
:10021600120400C3EA64809480400B7F2B1203A56E
:100226008A168B17800E7F2D1203A5C3E49BF51744
:10023600E49AF516AA15EAD39400400D1202C1AC51
:0902460016AD171203911A80EDA8
:01024F00228C
:040250008A1A8B1B60
:10025400120400AA1CEAD3940040297F101202C39E
:10026400AC1AAD1BCFCDCFCECCCE120126EF540F9E
:10027400FEC3940AEE5004243080022437FF120394
:04028400A51A80D166
:010288002253
:040289008A1F8B201D
:10028D00120400AA21EAD394004028EA24FFFDE4D9
:10029D0034FFFC7F027E001202CDAC1FAD20CFCD0E
:1002AD00CFCECCCE120126EF54012430FF1203A580
:0302BD001A80D2D2
:0102C000221B
:10034A008F088C098D0A12046F7FA01203211204F0
:10035A0039AF08120321120439AF0A120321120419
:04036A0039020478D8
:0202F4008F0871
:1002F60012046F7FA0120321120439AF08120321E2
:1003060012043912046F7FA1120321120439120359
:0A031600AF8F097F01120465AF09E3
:0103200022BA
:09046F00D2A0D2A1C2A0C2A122B8
:07047800C2A0D2A1D2A02214
:02032100AD0726
:10032300E4FB74807E00A803088006CEA2E713CE08
:1003330013D8F8FFEDF582EF558224FF92A0D2A1E6
:06034300C2A10BBB08DCA7
:010349002291
:1003AF00E4FFD2A0FED2A130A00D7480A806088071
:0D03BF0002C313D8FC4207C2A10EBE08E81D
:0103CC00220E
:0A046500EF24FF92A0D2A1C2A12251
:0B043900D2A0D2A1A2A0E433FFC2A118
:010444002295
:03000000020445B2
:0C044500787FE4F6D8FD758124020003E6
:1000E700BB010CE58229F582E5833AF583E02250CE
:1000F70006E92582F8E622BBFE06E92582F8E22218
:0D010700E58229F582E5833AF583E4932231
:10011400EF8DF0A4A8F0CF8CF0A428CE8DF0A42EFF
:02012400FE22B9
:10012600BC000BBE0029EF8DF084FFADF022E4CCBD
:10013600F875F008EF2FFFEE33FEEC33FCEE9DEC86
:10014600984005FCEE9DFE0FD5F0E9E4CEFD22EDCC
:10015600F8F5F0EE8420D21CFEADF075F008EF2F16
:10016600FFED33FD4007985006D5F0F222C398FD07
:050176000FD5F0EA22A4
:00000001FF
