:100168001201C1E4F51B851B197F0A7E001201D814
:10017800051BE51BC3946440ED751B64E51BD39414
:100188000040E0851B197F0A7E001201D8151B80EC
:01019800EB7B
:03000B0002019956
:10019900C0E0C0D0758AA4758CFF051AE51AC3940E
:1001A900644003751A00E51AC395195004D2A18059
:0801B90002C2A1D0D0D0E03257
:1001D800EF1FAC0670011E4C600B007D027CC7DC73
:0501E800FEDDFC80EBD0
:0101ED0022EF
:10010700E4F51C20B1137F14FE1201D830B1FD7F36
:10011700147E001201D8751C0120B0147F147E00D4
:100127001201D830B0FD7F147E001201D8751C0271
:1001370020B2147F147E001201D830B2FD7F147EE6
:10014700001201D8751C0320B3147F147E0012011E
:10015700D830B3FD7F147E001201D8751C04AF1C84
:010167002275
:1001EE0011083F065B4F666D7D077F6F777C395E2A
:0301FE0079710014
:10009A00EF14B4080050549000AF75F003A4C58360
:1000AA0025F0C583730200C70200CB0200CF02000D
:1000BA00D30200D70200DF0200E70200EFD2A480D9
:1000CA000ED2A48012D2A48016D2A4801AC2A4D2BC
:1000DA00A3D2A28016C2A4D2A3C2A2800EC2A4C274
:1000EA00A3D2A28006C2A4C2A3C2A274082DF8E6B3
:0D00FA00F5807F017E001201D8E4F5802220
:1001C1005389F0438901758AA4758CFFC28DD28C45
:0701D100D2A9D2AFC2B9228E
:0300000002000EED
:0C000E00787FE4F6D8FD75811C020055D7
:10001A00020168E493A3F8E493A34003F68001F293
:10002A0008DFF48029E493A3F85407240CC8C333E7
:10003A00C4540F4420C8834004F456800146F6DFB6
:10004A00E4800B01020408102040809001EEE47E57
:10005A00019360BCA3FF543F30E509541FFEE493AB
:10006A00A360010ECF54C025E060A840B8E493A372
:10007A00FAE493A3F8E493A3C8C582C8CAC583CA9D
:10008A00F0A3C8C582C8CAC583CADFE9DEE780BE55
:0102010000FC
:00000001FF
