:1000A60000001F3C1F0000000000071C3F6000000E
:10000300E4F50A1200C2E4F508E50825099000A604
:1000130093FD7C00AF0812006E0508E508C3940841
:1000230040E7050AE50AD3941E40DBE4F50A7408A9
:0E0033002509F509D3940840CDE4F50980C8ED
:10009000EF1FAC0670011E4C600B007D027CC7DCBC
:0500A000FEDDFC80EB19
:0100A5002238
:02004100AD0709
:10004300E4FB74807E00A803088006CEA2E713CEEB
:1000530013D8F8FFEDF582EF558224FF92B4D2B6A0
:0A006300C2B60BBB08DCD2B5C2B573
:01006D002270
:0500C200C2B6C2B52228
:10006E00AA07AF05120041AF027480A807088002EC
:10007E00C313D8FCF4F5807F017E001200907580CA
:02008E00FF224F
:030000000200B645
:0C00B600787FE4F6D8FD75810A02000393
:00000001FF
