:1009AA0020200020202D20202D20200020203A2049
:0509BA00203A2020009E
:0409E20002180000F7
:1006260012050DE51EFB3395E0FA750C027D017F80
:100636000112094AE51FFB3395E0FA750C027D04A9
:100646007F0112094AE520FB3395E0FA750C027D1D
:10065600077F0112094AE521FB3395E0FA750C0282
:100666007D017F0212094AE522FB3395E0FA750CFB
:10067600027D047F0212094AE523FB3395E0FA75F1
:090686000C027D077F0202094A03
:10000E00E51DB4020B051AE51A75F0068485F01A83
:10001E00E51D640360030200E8741E251AF806D37A
:10002E00E51E648094E34003E4F51ED3E51F64806F
:10003E00948C4003751F01E51F64016023E51F6466
:10004E0003601DE51F64056017E51F64076011E579
:10005E001F6408600BE51F640A6005E51FB40C0BF6
:10006E00D3E5206480949F404D8048E51F64046072
:10007E0011E51F6406600BE51F64096005E51FB4FA
:10008E000B0BD3E5206480949E402B8026E51FB495
:10009E000224E51E75F004120457AFF0EF700BD377
:1000AE00E5206480949D400E8009D3E52064809401
:1000BE009C4003752001D3E521648094974003E4AE
:1000CE00F521D3E522648094BB4003E4F522D3E509
:1000DE0023648094BB4003E4F523E51D64046003B0
:1000EE000201E3741E251AF816C3E51E648094807F
:1000FE005003751E63C3E51F648094815003751F02
:10010E000CE51F64016023E51F6403601DE51F6499
:10011E00056017E51F64076011E51F6408600BE5B5
:10012E001F640A6005E51FB40C17C3E520648094B4
:10013E0081500375201FD3E5206480949F40728008
:10014E006DE51F64046011E51F6406600BE51F6416
:10015E00096005E51FB40B17C3E520648094815038
:10016E000375201ED3E5206480949E4044803FE5B5
:10017E001F6402703CE51E75F004120457AFF0EFD9
:10018E007017C3E52064809481500375201DD3E55C
:10019E00206480949D401A8015C3E520648094816C
:1001AE00500375201CD3E5206480949C4003752079
:1001BE0001C3E521648094805003752117C3E522A5
:1001CE0064809480500375223BC3E5236480948041
:1001DE00500375233BE51CB40113E51A700F7BFF2A
:1001EE007A0979AA7D017F011209098011E51EFBAA
:1001FE003395E0FA750C027D017F0112094AE51C68
:10020E00B40114E51AB4010F7BFF7A0979AA7D04B3
:10021E007F011209098011E51FFB3395E0FA750C79
:10022E00027D047F0112094AE51CB40114E51AB4DB
:10023E00020F7BFF7A0979AA7D077F0112090980D7
:10024E0011E520FB3395E0FA750C027D077F011254
:10025E00094AE51CB40114E51AB4030F7BFF7A09B1
:10026E0079AA7D017F021209098011E521FB3395E0
:10027E00E0FA750C027D017F0212094AE51CB401F9
:10028E0014E51AB4040F7BFF7A0979AA7D047F0264
:10029E001209098011E522FB3395E0FA750C027DF7
:1002AE00047F0212094AE51CB40112E51AB4050DC9
:1002BE007BFF7A0979AA7D077F02020909E523FBF4
:0F02CE003395E0FA750C027D077F0212094A2270
:10074C001209BF1200031209677BFF7A0979AD7D8C
:10075C00017F011209097BFF7A0979B67D017F02BD
:10076C001209091202DD12068F8F1DE51DB4011648
:10077C00E51B7007751B01F51A800BE51BB4010610
:10078C00E4F51B1202DDE51B1460080470D8120698
:08079C002680D312000E80CE6E
:03000B0002082CBC
:09082C00C0E0C0D075D000C00787
:10083500758CFC758A660519E51970020518C3944F
:10084500F4E51894014012751800751900E51C703F
:09085500047F0180027F008F1C6A
:07085E00D007D0D0D0E0323A
:0609D300C2A58F80D2A72F
:0809D9007F027EEFDEFEDFFC71
:0109E10022F3
:0A09EF00C2A61209D3C2A70209D95B
:10092C00CFCDCFCECCCE1204B87C007D0A1204B849
:04093C00ED2430FF77
:0A094000D2A61209D3C2A70209D9FA
:10097E00AE07BE0104ED148006BE0209ED243F440D
:06098E0080FF1209EF22B8
:1009BF007F381209EF7F0C1209EF7F061209EF7FC4
:0409CF00010209EF29
:0A09F900AC0312097EAF04020940AE
:060909008B088A09890A2F
:10090F0012097EE4FDAB08AA09A90A8D827583003E
:0C091F00120479FF60061209400D80E907
:01092B0022A9
:0C08D6007F0AEA24FFFDE434FFFC7E00F2
:0808E2008E0D8F0E8C0F8D109E
:1008EA007F017E00E4FBEBC39510E50F6480F8748A
:0E08FA008098500AAC0DAD0E1204A60B80E8DB
:0109080022CC
:04094A008A0A8B0B7F
:10094E0012097EAA0CEAD39400400D1208D6AC0A06
:08095E00AD0B12092C1A80ED0B
:01096600226E
:1007F20012097EC3EA64809480400B7F2B12094069
:100802008A168B17800E7F2D120940C3E49BF517C1
:10081200E49AF516AA15EAD39400400D1208D6AC54
:0908220016AD1712092C1A80ED25
:01082B0022AA
:040865008A268B272D
:1008690012097EAA28EAD3940040297F101208D8D9
:10087900AC26AD27CFCDCFCECCCE1204B8EF540FD6
:10088900FEC3940AEE5004243080022437FF120973
:04089900401A80D1B0
:01089D002238
:04089E008A2B8B2CEA
:1008A20012097EAA2DEAD394004028EA24FFFDE42F
:1008B20034FFFC7F027E001208E2AC2BAD2CCFCDC0
:1008C200CFCECCCE1204B8EF54012430FF1209402F
:0308D2001A80D2B7
:0108D5002200
:0809E600061E180B1214183A4A
:05000300C2B5C2B622E7
:0506F0002DFDEE3CFCB5
:0606F5008C088D09AB0723
:1006FB00D2B5E4FD74017E00A805088005C333CE96
:10070B0033CED8F9FFEBF582EF558224FF92B4D2AA
:10071B00B6C2B60DBD08DDE4FD74017E00A8050868
:10072B008005C333CE33CED8F9FFE5085EFEE5096D
:10073B005F4E24FF92B4D2B6C2B60DBD08DBC2B574
:01074B00228B
:0207A400AD079F
:1007A600E4F9430501D2B5FB74017E00A803088075
:1007B60005C333CE33CED8F9FFEDF582EF5582244B
:1007C600FF92B4C2B6D2B60BBB08DDE4FBD2B6C20A
:1007D600B630B40D7401A803088002C333D8FC42B6
:0B07E600010BBB08E8C2B5C2B4AF01B4
:0107F10022E5
:1002DD00E4FDFC7F8E1206F5E51E75F00A1204573B
:1002ED00FF3395E0FEEFC4F8540FC868FFEEC45419
:1002FD00F048FEE51E75F00A120457ADF0ED33958A
:10030D00E0FCEF7F8C1206F0E51F75F00A12045722
:10031D00FF3395E0FEEFC4F8540FC868FFEEC454E8
:10032D00F048FEE51F75F00A120457ADF0ED339558
:10033D00E0FCEF7F881206F0E52075F00A120457F5
:10034D00FF3395E0FEEFC4F8540FC868FFEEC454B8
:10035D00F048FEE52075F00A120457ADF0ED339527
:10036D00E0FCEF2DFDEE3CFC7F861206F5E52175D8
:10037D00F00A120457FF3395E0FEEFC4F8540FC88E
:10038D0068FFEEC454F048FEE52175F00A120457DB
:10039D00ADF0ED3395E0FCEF2DFDEE3CFC7F8412CE
:1003AD0006F5E52275F00A120457FF3395E0FEEFCE
:1003BD00C4F8540FC868FFEEC454F048FEE522752A
:1003CD00F00A120457ADF0ED3395E0FCEF2DFDEE84
:1003DD003CFC7F821206F5E52375F00A120457FFE7
:1003ED003395E0FEEFC4F8540FC868FFEEC454F027
:1003FD0048FEE52375F00A120457ADF0ED3395E094
:10040D00FCEF2DFDEE3CFC7F801206F5E52475F02A
:10041D000A120457FF3395E0FEEFC4F8540FC86875
:10042D00FFEEC454F048FEE52475F00A120457ADF2
:10043D00F0ED3395E0FCEF2DFDEE3CFC7F8A1206CE
:0A044D00F57D807C007F8E0206F52D
:10050D007F8C1207A4EFC4540F75F00AA4FEEF54AC
:10051D000F2EF51E7F881207A4EFC4540F75F00A35
:10052D00A4FEEF540F2EF51F7F861207A4EFC454BF
:10053D000F75F00AA4FEEF540F2EF5207F841207DD
:10054D00A4EFC4540F75F00AA4FEEF540F2EF5213D
:10055D007F821207A4EFC4540F75F00AA4FEEF5466
:10056D000F2EF5227F801207A4EFC4540F75F00AE9
:10057D00A4FEEF540F2EF5237F8A1207A4EFC45467
:0C058D000F75F00AA4FEEF540F2EF524A9
:01059900223F
:10099400EF1FAC0670011E4C600B007D027CC7DCAF
:0509A400FEDDFC80EB0C
:0109A900222B
:10068F00E4F50820B1137F14FE12099430B1FD7FF9
:10069F00147E0012099475080120B0147F147E0097
:1006AF0012099430B0FD7F147E0012099475080270
:1006BF0020B2147F147E0012099430B2FD7F147E95
:1006CF000012099475080320B3147F147E001209D9
:1006DF009430B3FD7F147E00120994750804AF089F
:0106EF0022E8
:100967005389F0438901758A66758CFCC28DD28CD8
:07097700D2A9D2AFC2B922E0
:0300000002059A5C
:0C059A00787FE4F6D8FD75812D0205E1A4
:10045700C2D530F707B2D563F0FF05F030E70CB22D
:10046700D5F4048463F0FF05F080018430D502F4ED
:0204770004225D
:10047900BB010CE58229F582E5833AF583E0225038
:1004890006E92582F8E622BBFE06E92582F8E22282
:0D049900E58229F582E5833AF583E493229C
:1004A600EF8DF0A4A8F0CF8CF0A428CE8DF0A42E6A
:0204B600FE2224
:1004B800BC000BBE0029EF8DF084FFADF022E4CC28
:1004C800F875F008EF2FFFEE33FEEC33FCEE9DECF1
:1004D800984005FCEE9DFE0FD5F0E9E4CEFD22ED37
:1004E800F8F5F0EE8420D21CFEADF075F008EF2F81
:1004F800FFED33FD4007985006D5F0F222C398FD72
:050508000FD5F0EA220E
:1005A60002074CE493A3F8E493A34003F68001F218
:1005B60008DFF48029E493A3F85407240CC8C33356
:1005C600C4540F4420C8834004F456800146F6DF25
:1005D600E4800B01020408102040809009E2E47ECA
:1005E600019360BCA3FF543F30E509541FFEE4931A
:1005F600A360010ECF54C025E060A840B8E493A3E1
:10060600FAE493A3F8E493A3C8C582C8CAC583CA0B
:10061600F0A3C8C582C8CAC583CADFE9DEE780BEC3
:0109EE000008
:00000001FF
