:1005120020202D20202D20200020203A20203A20AB
:090522002020205765656B3A00AA
:100181001205571205987BFF7A0579127D017F01CF
:100191001204B47BFF7A05791B7D017F021204B43E
:1001A100120003120212E518FB7A00750C027D01A0
:1001B1007F011204F5E519FB7A00750C027D047FBD
:1001C100011204F5E51AFB7A00750C027D077F0127
:1001D1001204F5E51BFB7A00750C027D017F02120A
:1001E10004F5E51CFB7A00750C027D047F02120404
:1001F100F5E51DFB7A00750C027D077F021204F5FF
:10020100E51EFB7A00750C017D107F021204F5805A
:01021100925A
:06056B00C2A58F80D2A79B
:080571007F027EEFDEFEDFFCDD
:01057900225F
:0A057A00C2A612056BC2A7020571AC
:1004D700CFCDCFCECCCE12012C7C007D0A12012CC1
:0404E700ED2430FFD1
:0A04EB00D2A612056BC2A70205712C
:10052B00AE07BE0104ED148006BE0209ED243F4464
:06053B0080FF12057A2288
:100557007F3812057A7F0C12057A7F0612057A7F9B
:040567000102057A0E
:0A058400AC0312052BAF040204EBD8
:0604B4008B088A09890A89
:1004BA0012052BE4FDAB08AA09A90A8D82758300EF
:0C04CA001200EDFF60061204EB0D80E94B
:0104D6002203
:0C0481007F0AEA24FFFDE434FFFC7E004B
:08048D008E0D8F0E8C0F8D10F7
:100495007F017E00E4FBEBC39510E50F6480F874E3
:0E04A5008098500AAC0DAD0E12011A0B80E8C3
:0104B3002226
:0404F5008A0A8B0BD9
:1004F90012052BAA0CEAD39400400D120481AC0A10
:08050900AD0B1204D71A80EDBE
:0105110022C7
:1003D60012052BC3EA64809480400B7F2B1204EB3A
:1003E6008A168B17800E7F2D1204EBC3E49BF5173C
:1003F600E49AF516AA15EAD39400400D120481ACCE
:0904060016AD171204D71A80ED9F
:01040F0022CA
:040410008A218B2290
:1004140012052BAA23EAD3940040297F10120483E7
:10042400AC21AD22CFCDCFCECCCE12012CEF540FC8
:10043400FEC3940AEE5004243080022437FF1204D1
:04044400EB1A80D15E
:010448002291
:040449008A268B274D
:10044D0012052BAA28EAD394004028EA24FFFDE4E4
:10045D0034FFFC7F027E0012048DAC26AD27CFCD7C
:10046D00CFCECCCE12012CEF54012430FF1204EB71
:03047D001A80D210
:010480002259
:09058E000718180B12150D3201BB
:05059800C2B5C2B6224D
:06032B0025F0FDEC3EFC94
:060331008C088D09AB07EA
:10033700D2B5E4FD74017E00A805088005C333CE5D
:1003470033CED8F9FFEBF582EF558224FF92B4D272
:10035700B6C2B60DBD08DDE4FD74017E00A8050830
:100367008005C333CE33CED8F9FFE5085EFEE50935
:100377005F4E24FF92B4D2B6C2B60DBD08DBC2B53C
:010387002253
:02038800AD07BF
:10038A00E4F9430501D2B5FB74017E00A803088095
:10039A0005C333CE33CED8F9FFEDF582EF5582246B
:1003AA00FF92B4C2B6D2B60BBB08DDE4FBD2B6C22A
:1003BA00B630B40D7401A803088002C333D8FC42D6
:0B03CA00010BBB08E8C2B5C2B4AF01D4
:0103D5002205
:10000300E4FDFC7F8E120331E51875F00A8475F068
:1000130010A4FFAEF0E51875F00A84EF7F8C12038D
:100023002BE51975F00A8475F010A4FFAEF0E519FD
:1000330075F00A847C00EF7F8812032BE51A75F0B4
:100043000A8475F010A4FFAEF0E51A75F00A847CFB
:1000530000EF25F0FDEC3EFC7F86120331E51B75B6
:10006300F00A8475F010A4FFAEF0E51B75F00A8466
:100073007C00EF25F0FDEC3EFC7F84120331E51C90
:1000830075F00A8475F010A4FFAEF0E51C75F00A54
:10009300847C00EF25F0FDEC3EFC7F82120331E50A
:1000A3001D75F00A8475F010A4FFAEF0E51D75F020
:1000B3000A847C00EF25F0FDEC3EFC7F80120331C7
:1000C300E51E75F00A8475F010A4FFAEF0E51E7509
:1000D300F00A847C00EF25F0FDEC3EFC7F8A1203DE
:0A00E300317D807C007F8E02033126
:100212007F8C120388EFC4540F75F00AA4FEEF54CA
:100222000F2EF5187F88120388EFC4540F75F00A59
:10023200A4FEEF540F2EF5197F86120388EFC454E3
:100242000F75F00AA4FEEF540F2EF51A7F841203E5
:1002520088EFC4540F75F00AA4FEEF540F2EF51B5D
:100262007F82120388EFC4540F75F00AA4FEEF5484
:100272000F2EF51C7F80120388EFC4540F75F00A0D
:10028200A4FEEF540F2EF51D7F8A120388EFC4548B
:0C0292000F75F00AA4FEEF540F2EF51EAD
:01029E00223D
:10054100EF1FAC0670011E4C600B007D027CC7DC06
:05055100FEDDFC80EB63
:010556002282
:0300000002029F5A
:0C029F00787FE4F6D8FD75812B0202E6A2
:1000ED00BB010CE58229F582E5833AF583E02250C8
:1000FD0006E92582F8E622BBFE06E92582F8E22212
:0D010D00E58229F582E5833AF583E493222B
:10011A00EF8DF0A4A8F0CF8CF0A428CE8DF0A42EF9
:02012A00FE22B3
:10012C00BC000BBE0029EF8DF084FFADF022E4CCB7
:10013C00F875F008EF2FFFEE33FEEC33FCEE9DEC80
:10014C00984005FCEE9DFE0FD5F0E9E4CEFD22EDC6
:10015C00F8F5F0EE8420D21CFEADF075F008EF2F10
:10016C00FFED33FD4007985006D5F0F222C398FD01
:05017C000FD5F0EA229E
:1002AB00020181E493A3F8E493A34003F68001F2E7
:1002BB0008DFF48029E493A3F85407240CC8C33354
:1002CB00C4540F4420C8834004F456800146F6DF23
:1002DB00E4800B010204081020408090058EE47E20
:1002EB00019360BCA3FF543F30E509541FFEE49318
:1002FB00A360010ECF54C025E060A840B8E493A3DF
:10030B00FAE493A3F8E493A3C8C582C8CAC583CA09
:10031B00F0A3C8C582C8CAC583CADFE9DEE780BEC1
:010597000063
:00000001FF
