:1004330050617373776F72643A00202020004F4B32
:06044300200045525200AA
:10018C001204757BFF7A0479337D017F011203D54C
:10019C001200038F1CE51C60F7D3940A504EC3E584
:1001AC00199404E518940050357BFF7A04793D7D51
:1001BC000E7F011203D5AE1AAF1B7C007D0A120212
:1001CC00908E1A8F1BE51C75F00A84E5F0251BF543
:1001DC001BE4351AF51A0519E51970020518750C8A
:1001EC0004AB1BAA1A7D017F02120416E51C640BDA
:1001FC007036E51BB4290DE51AB409087BFF7A04A7
:10020C00794180067BFF7A0479457D0E7F011203CC
:10021C00D5E4F518F519F51AF51B750C04AB1BAAEA
:10022C001A7D017F02120416E51C640C60030201A6
:10023C009CF518F519F51AF51B750C04AB1BAA1ACD
:10024C007D017F021204167BFF7A04793D7D0E7FBF
:07025C00011203D502019C11
:10044900EF1FAC0670011E4C600B007D027CC7DCFF
:05045900FEDDFC80EB5C
:01045E00227B
:06048900C2A58F80D2A77E
:08048F007F027EEFDEFEDFFCC0
:010497002242
:0A04A400C2A6120489C2A702048F49
:1003F800CFCDCFCECCCE1202A27C007D0A1202A2B3
:04040800ED2430FFB0
:0A040C00D2A6120489C2A702048FD1
:10045F00AE07BE0104ED148006BE0209ED243F4431
:06046F0080FF1204A4222C
:100475007F381204A47F0C1204A47F061204A47F03
:04048500010204A4C8
:0A04AE00AC0312045FAF0402040C5B
:0603D5008B088A09890A69
:1003DB0012045FE4FDAB08AA09A90A8D827583009C
:0C03EB00120263FF600612040C0D80E992
:0103F70022E3
:0C03A2007F0AEA24FFFDE434FFFC7E002B
:0803AE008E0D8F0E8C0F8D10D7
:1003B6007F017E00E4FBEBC39510E50F6480F874C3
:0E03C6008098500AAC0DAD0E1202900B80E82C
:0103D4002206
:040416008A0A8B0BB8
:10041A0012045FAA0CEAD39400400D1203A2AC0A9C
:08042A00AD0B1203F81A80ED7E
:0104320022A7
:1002F70012045FC3EA64809480400B7F2B12040CC6
:100307008A168B17800E7F2D12040CC3E49BF517FA
:10031700E49AF516AA15EAD39400400D1203A2AC8D
:0903270016AD171203F81A80ED5F
:0103300022AA
:040331008A1F8B2074
:1003350012045FAA21EAD3940040297F101203A476
:10034500AC1FAD20CFCDCFCECCCE1202A2EF540F35
:10035500FEC3940AEE5004243080022437FF1204B1
:040365000C1A80D11D
:010369002271
:04036A008A248B2531
:10036E0012045FAA26EAD394004028EA24FFFDE493
:10037E0034FFFC7F027E001203AEAC24AD25CFCD40
:10038E00CFCECCCE1202A2EF54012430FF12040CB9
:03039E001A80D2F0
:0103A1002239
:10000300E4F5087590FFC2932097137F14FE120442
:10001300493097FD7F147E0012044975080120962C
:10002300147F147E001204493096FD7F147E001263
:1000330004497508052095147F147E001204493085
:1000430095FD7F147E001204497508092094147FDE
:10005300147E001204493094FD7F147E001204497B
:1000630075080D7590FFC2922097147F147E0012BD
:1000730004493097FD7F147E00120449750802205D
:1000830096147F147E001204493096FD7F147E007F
:100093001204497508062095147F147E0012044942
:1000A3003095FD7F147E0012044975080A209414CC
:1000B3007F147E001204493094FD7F147E001204E5
:1000C3004975080E7590FFC2912097147F147E0026
:1000D3001204493097FD7F147E001204497508030A
:1000E3002096147F147E001204493096FD7F147EFF
:1000F300001204497508072095147F147E0012042A
:10010300493095FD7F147E0012044975080B209435
:10011300147F147E001204493094FD7F147E001274
:10012300044975080F7590FFC2902097147F147EC1
:10013300001204493097FD7F147E001204497508AC
:10014300042096147F147E001204493096FD7F1418
:100153007E001204497508082095147F147E00124E
:1001630004493095FD7F147E0012044975080C2064
:1001730094147F147E001204493094FD7F147E0092
:08018300120449750810AF08D1
:01018B002251
:030000000204985F
:0C049800787FE4F6D8FD75812602018C07
:10026300BB010CE58229F582E5833AF583E0225050
:1002730006E92582F8E622BBFE06E92582F8E2229A
:0D028300E58229F582E5833AF583E49322B4
:10029000EF8DF0A4A8F0CF8CF0A428CE8DF0A42E82
:0202A000FE223C
:1002A200BC000BBE0029EF8DF084FFADF022E4CC40
:1002B200F875F008EF2FFFEE33FEEC33FCEE9DEC09
:1002C200984005FCEE9DFE0FD5F0E9E4CEFD22ED4F
:1002D200F8F5F0EE8420D21CFEADF075F008EF2F99
:1002E200FFED33FD4007985006D5F0F222C398FD8A
:0502F2000FD5F0EA2227
:00000001FF
