:100263001203D71203C512038CEF604B1203D48F12
:1002730025E525B41603E4F526E525B40C03752618
:1002830001E525B41803752602E525B45E0375263A
:1002930003E5267004FF1203DAE526B401057F3275
:1002A3001203DAE526B402057F4B1203DAE526B41E
:1002B30003057F641203DAE526FD7C007F0112014A
:0302C300F680A31F
:10036600EF1FAC0670011E4C600B007D027CC7DCE3
:05037600FEDDFC80EB40
:01037B00225F
:1002C600E4F52920B1137F14FE12036630B1FD7FD9
:1002D600147E0012036675290120B0147F147E0077
:1002E60012036630B0FD7F147E0012036675290284
:1002F60020B2147F147E0012036630B2FD7F147E96
:100306000012036675290320B3147F147E001203BE
:100316006630B3FD7F147E00120366752904AF298B
:0103260022B4
:1000060011083F065B4F666D7D077F6F777C395E13
:03001600797100FD
:1001F600EF14B40800505490020B75F003A4C583A5
:1002060025F0C5837302022302022702022B020293
:100216002F02023302023B02024302024BD2A480A7
:100226000ED2A48012D2A48016D2A4801AC2A4D25E
:10023600A3D2A28016C2A4D2A3C2A2800EC2A4C216
:10024600A3D2A28006C2A4C2A3C2A274082DF8E655
:0D025600F5807F017E00120366E4F5802232
:10034F0053890F438910758BA4758DFFC28FD28E81
:07035F00D2ABD2AFC2BB22FA
:0B03A600D288C289D2A8D2AFD2B82200
:0603C50012037C0203A6F6
:0D038C00E5206006E4F5207F01227F0022BD
:0D039900E51E6006E4F51E7F01227F0022B4
:0303D100AF1D223B
:0303D400AF1C2239
:0300030002001EDA
:10001E00C0E0C0F0C083C082C0D075D000C000C0A8
:10002E0001C002C003C004C005C006C007E51970B8
:10003E000CFFFE1203B17F011203CB8049E5196458
:10004E000170491203BC8E1A8F1BE4FFFE1203B11E
:10005E00D3E51B94A6E51A942E4010E51B948EE56D
:10006E001A9432500675190202014FD3E51B948C77
:10007E00E51A94264010E51B9474E51A942A50064E
:10008E00751E0102014775190102014FE51964023F
:10009E00600302014F1203BC8E1A8F1BE4FFFE1287
:1000AE0003B1D3E51B9414E51A9402402CE51B947E
:1000BE00FCE51A94055022E51F131313541F242137
:1000CE00F8C000E6FFE51F5407FE7401A80608807D
:1000DE0002C333D8FCF45F8034D3E51B9432E51AA7
:1000EE0094044030E51B9402E51A940C5026E51F4B
:1000FE00131313541F2421F8C000E6FFE51F540705
:10010E00FE7401A806088002C333D8FC4FD000F657
:10011E00051F8006751F00751901E51FC394204049
:10012E0020751F00E522F4B5210FE524F4B523094F
:10013E0085211D85231C752001E4FF1203CB751943
:10014E0000D007D006D005D004D003D002D001D005
:0C015E0000D0D0D082D083D0F0D0E032AE
:10037C005389F0438901E4F58AF58CC28DC28C2235
:0B03B100AD07AC068C8CAF058F8A22D4
:0903BC00AF8CEFFEAD8AEDFF22CB
:0603CB00EF24FF928C22DA
:0303D70002034FCF
:0303DA008F272248
:03001B00020327B6
:10032700C0E0C0D0758BA4758DFF0528E528C39460
:10033700644003752800E528C395275004D29080B0
:0803470002C290D0D0D0E032D8
:0300000002016A90
:0C016A00787FE4F6D8FD7581290201B110
:10017600020263E493A3F8E493A34003F68001F23A
:1001860008DFF48029E493A3F85407240CC8C3338A
:10019600C4540F4420C8834004F456800146F6DF59
:1001A600E4800B0102040810204080900006E47EE3
:1001B600019360BCA3FF543F30E509541FFEE4934E
:1001C600A360010ECF54C025E060A840B8E493A315
:1001D600FAE493A3F8E493A3C8C582C8CAC583CA40
:1001E600F0A3C8C582C8CAC583CADFE9DEE780BEF8
:0100190000E6
:00000001FF
