:10008200EF1FAC0670011E4C600B007D027CC7DCCA
:05009200FEDDFC80EB27
:010097002246
:10000300EF14B40800505190001875F003A4C58391
:1000130025F0C58373020030020034020038020069
:100023003C02004002004702004E020055C2A48079
:100033000EC2A48011C2A48014C2A48017D2A4C289
:10004300A3C2A222D2A4C2A3D2A222D2A4D2A3C266
:09005300A222D2A4D2A3D2A2225F
:10005C007F0812000375806D7F017E00120082E420
:10006C00F5807F0712000375807F7F017E001200F0
:06007C0082E4F58080DA49
:0300000002009863
:0C009800787FE4F6D8FD75810702005C5B
:00000001FF
