:10000E001203A312040E8F28E528B4010CE5277005
:10001E00047F0180027F008F27E528B40207E4F5F4
:10002E0025F524F526E52864037033E525FD7C00CF
:10003E00E4FF1203297F057E001203BAE524FD7C3E
:10004E00007F011203297F057E001203BAE526FD0B
:10005E007C007F021203297F057E001203BAE52879
:10006E00B40415E4FF1202AC8F257F011202AC8F8F
:10007E00247F021202AC8F26E52575F00A84FD7CE2
:10008E00007F011203FCE52575F00A84E5F0FD7C86
:10009E00007F021203FC7D0B7C007F031203FCE544
:1000AE002475F00A84FD7C007F041203FCE52475A0
:1000BE00F00A84E5F0FD7C007F051203FC7D0B7CCD
:1000CE00007F061203FCE52675F00A84FD7C007F96
:1000DE00071203FCE52675F00A84E5F0FD7C007F2F
:0700EE00081203FC020011DF
:10030200E52760220526E526C394644019E4F52614
:100312000524E524943C400EE4F5240525E52594C6
:070322003C4003E4F5252235
:03000B000200F5FB
:1000F500C0E0C0F0C083C082C0D075D000C000C0D1
:0D01050001C002C003C004C005C006C00751
:10011200758CFC758A66051FE51F7002051EC39467
:1001220014E51E94004009751E00751F001202732B
:100132000521E52170020520C39402E520940040C8
:10014200097520007521001203880523E52370023A
:100152000522C3940AE52294004009752200752302
:040162000012030282
:10016600D007D006D005D004D003D002D001D000ED
:0B017600D0D0D082D083D0F0D0E03297
:1003BA00EF1FAC0670011E4C600B007D027CC7DC8F
:0503CA00FEDDFC80EBEC
:0103CF00220B
:05040E00AF2BE4F52B0B
:0104130022C6
:1003D000E4FF20B1010F20B0027F0220B2027F03B0
:0503E00020B3027F04C0
:0103E50022F5
:1002730085292A1203D08F29E52AB40107E52970BD
:1002830003752B01E52AB40207E5297003752B02D8
:10029300E52AB40307E5297003752B03E52AB404A3
:0802A30007E5297003752B0427
:0102AB002230
:10036B000909000A0A0A0A0A0A0A0A0C123F065B62
:0C037B004F666D7D077F6F004001080198
:0903FC00AE0574092FF8A60622D3
:10020D00E4F580EF14B40800505490022575F00306
:10021D00A4C58325F0C5837302023D02024102028B
:10022D004502024902024D02025502025D020265BB
:10023D00D2A4800ED2A48012D2A48016D2A4801A89
:10024D00C2A4D2A3D2A28016C2A4D2A3C2A2800EEF
:10025D00C2A4C2A3D2A28006C2A4C2A3C2A2741217
:06026D002DF8E6F58022E9
:1003880074092508F8E6FD7C00AF0812020D05087F
:0A039800E508C3940940037508014D
:0103A2002238
:1003A3005389F0438901758A66758CFCC28DD28CA2
:0703B300D2A9D2AFC2B922AA
:100329008F2C8C2D8D2E1204057FA01202D9120359
:10033900E6AF2C1202D91203E6AF2E1202D912032C
:04034900E6020003C5
:0202AC008F2C95
:1002AE001204057FA01202D91203E6AF2C1202D956
:1002BE001203E61204057FA11202D91203E61203FD
:0A02CE004D8F2D7F011203F2AF2DBA
:0102D8002203
:09040500D2A0D2A1C2A0C2A12222
:07000300C2A0D2A1D2A0228D
:0202D900AD076F
:1002DB00E4FB74807E00A803088006CEA2E713CE51
:1002EB0013D8F8FFEDF582EF558224FF92A0D2A12F
:0602FB00C2A10BBB08DCF0
:0103010022D9
:10034D00E4FFD2A0FED2A130A00D7480A8060880D3
:0D035D0002C313D8FC4207C2A10EBE08E87F
:01036A002270
:0A03F200EF24FF92A0D2A1C2A122C5
:0B03E600D2A0D2A1A2A0E433FFC2A16C
:0103F10022E9
:0300000002018179
:0C018100787FE4F6D8FD75812E0201C8DD
:10018D0002000EE493A3F8E493A34003F68001F27A
:10019D0008DFF48029E493A3F85407240CC8C33373
:1001AD00C4540F4420C8834004F456800146F6DF42
:1001BD00E4800B010204081020408090036BE47E64
:1001CD00019360BCA3FF543F30E509541FFEE49337
:1001DD00A360010ECF54C025E060A840B8E493A3FE
:1001ED00FAE493A3F8E493A3C8C582C8CAC583CA29
:1001FD00F0A3C8C582C8CAC583CADFE9DEE780BEE1
:010387000075
:00000001FF
