:1009DD00543A0054483A00544C3A004F563A4800A5
:0A09ED004F563A4C00202020200055
:040AE8000208000000
:10046D00120A10120AA27FE87E03120A27E4FF1275
:10047D0008648F0F7F011208648F0AD3E50F648023
:10048D0094FD5016C3E50A64809449400DD3E50AE6
:10049D006480F8E50F6480985006750F14750A0A8C
:1004AD00120A7F7BFF7A0979DD7D017F0112090A2E
:1004BD007BFF7A0979E07D017F0212090A7BFF7AC1
:1004CD000979E47D097F02020653120AE28F1012A8
:1004DD000AA21208918F0E8E0D8D0C8C0BE4FFFE6F
:1004ED00FDFCAB0EAA0DA90CA80B1201B4501E7B7E
:1004FD002D7D037F01120ACFAF0EAE0DAD0CAC0BEF
:10050D0012022D8F148E138D128C1180157B2B7D65
:10051D00037F01120ACF850E14850D13850C1285EC
:10052D000B11AF14AE13AD12AC1112027CAB07AAB6
:10053D00067519037D047F011209A47B2E7D077FAB
:10054D0001120ACFE4FFFE7DC87C42AB14AA13A9A9
:10055D0012A81112000E12027CE47B64FAF9F81253
:10056D0003CD7519027D087F011209A4E5106050B5
:10057D00B4010E050FD3E50F648094FD4003750F94
:10058D007DE510B40211150FD3E50A6480F8E50F6F
:10059D006480985002050FE510B40311050AC3E5F8
:1005AD000F6480F8E50A6480984002150AE510B4DE
:1005BD00040E150AC3E50A648094495003750AC9EF
:1005CD00E50FFB3395E0FA7519037D047F021207E1
:1005DD004DE50AFB3395E0FA7519037D0C7F021288
:1005ED00074DE50FFD3395E0FCE4FF1208E67F05AE
:1005FD007E00120A27E50AFD3395E0FC7F01120803
:10060D00E67F057E00120A27AC0FEC120248AB0EF6
:10061D00AA0DA90CA80B1201B4600E400C7BFF7A39
:10062D000979E87D0D7F01801DAC0AEC120248AB03
:10063D000EAA0DA90CA80B1201B450107BFF7A095C
:10064D0079ED7D0D7F0112090A0204D77BFF7A092E
:0C065D0079F27D0D7F0112090A0204D71A
:03000B000206F5F5
:1006F500C0E0C0F0C083C082C0D075D000C000C0CB
:0D07050001C002C003C004C005C006C0074B
:10071200758CFC758A660509E50970020508C394A3
:1007220014E508940040097508007509001207C015
:10073200D007D006D005D004D003D002D001D0001B
:0B074200D0D0D082D083D0F0D0E032C5
:1008E6008F158C168D17120AD97FA01208BD120A11
:1008F600AFAF151208BD120AAFAF171208BD120A24
:04090600AF02000339
:020864008F15EE
:10086600120AD97FA01208BD120AAFAF151208BD31
:10087600120AAF120AD97FA11208BD120AAF1209D5
:0A0886002D8F167F01120ABBAF167A
:010890002245
:100A2700EF1FAC0670011E4C600B007D027CC7DC1B
:050A3700FEDDFC80EB78
:010A3C002297
:090AD900D2A0D2A1C2A0C2A12248
:07000300C2A0D2A1D2A0228D
:0208BD00AD0785
:1008BF00E4FB74807E00A803088006CEA2E713CE67
:1008CF0013D8F8FFEDF582EF558224FF92A0D2A145
:0608DF00C2A10BBB08DC06
:0108E50022F0
:10092D00E4FFD2A0FED2A130A00D7480A8060880ED
:0D093D0002C313D8FC4207C2A10EBE08E899
:01094A00228A
:0A0ABB00EF24FF92A0D2A1C2A122F5
:0B0AAF00D2A0D2A1A2A0E433FFC2A19C
:010ABA002219
:0D0AA20012094B7FCC1209F77F440209F7BF
:1008910012094B7FCC1209F77FBE1209F7120987A3
:1008A1008F15120987EFFEE515FFFDAC06EC12026C
:0B08B10043E4FBFA7980784112011744
:0108BC002219
:10094B00C2AFD2B7C2B77FF7DFFED2B77F1DDFFED4
:0D095B00A2B7E433FE7FF7DFFED2AFAF0698
:01096800226C
:100A3D00C2AFC2B77E03DEFEEF24FF92B77E16DE95
:050A4D00FED2B7D2AF9C
:010A52002281
:1009C100C2AFC2B77F01DFFED2B77F01DFFEA2B7A0
:0B09D100E433FE7F16DFFED2AFAF065E
:0109DC0022F8
:0209F700AD074A
:1009F900E4FC7401A804088002C333D8FC5DFF122B
:060A09000A3D0CBC08ECE4
:010A0F0022C4
:10098700E4FDFC1209C1EF600D7401A804088002A0
:0C099700C333D8FC42050CBC08E9AF05D6
:0109A3002231
:060A9300C2A58F80D2A76E
:080A99007F027EEFDEFEDFFCB0
:010AA1002232
:0A0AC500C2A6120A93C2A7020A9902
:10096900CFCDCFCECCCE12033C7C007D0A12033C06
:04097900ED2430FF3A
:0A097D00D2A6120A93C2A7020A993B
:100A5300AE07BE0104ED148006BE0209ED243F4437
:060A630080FF120AC5220B
:100A7F007F38120AC57F0C120AC57F06120AC57F7E
:040A8F0001020AC591
:0A0ACF00AC03120A53AF0402097DC4
:06090A008B158A16891707
:10091000120A53E4FDAB15AA16A9178D8275830040
:0C0920001202FDFF600612097D0D80E947
:01092C0022A8
:0C0831007F0AEA24FFFDE434FFFC7E0097
:08083D008E1C8F1D8C1E8D1F07
:100845007F017E00E4FBEBC3951FE51E6480F87411
:0E0855008098500AAC1CAD1D12032A0B80E8DF
:010863002272
:0409A4008A178B180B
:1009A800120A53AA19EAD39400400D120831AC1761
:0809B800AD181209691A80ED67
:0109C0002214
:10074D00120A53C3EA64809480400B7F2B12097DFB
:10075D008A1A8B1B800E7F2D12097DC3E49BF51B1E
:10076D00E49AF51AAA19EAD39400400D120831AC97
:09077D001AAD1B1209691A80ED86
:010786002250
:040787008A228B2314
:10078B00120A53AA24EAD3940040297F101208338B
:10079B00AC22AD23CFCDCFCECCCE12033CEF540F3A
:1007AB00FEC3940AEE5004243080022437FF120952
:0407BB007D1A80D152
:0107BF002217
:0407F9008A278B2898
:1007FD00120A53AA29EAD394004028EA24FFFDE403
:10080D0034FFFC7F027E0012083DAC27AD28CFCD12
:10081D00CFCECCCE12033CEF54012430FF12097D14
:03082D001A80D25C
:0108300022A5
:050AE200AF2CE4F52C2F
:010AE70022EC
:100A6900E4FF20B1010F20B0027F0220B2027F0310
:050A790020B3027F0420
:010A7E002255
:1007C000852A2B120A698F2AE52BB40107E52A70C6
:1007D00003752C01E52BB40207E52A7003752C0282
:1007E000E52BB40307E52A7003752C03E52BB4044D
:0807F00007E52A7003752C04D3
:0107F80022DE
:100A10005389F0438901758A66758CFCC28DD28C2E
:070A2000D2A9D2AFC2B92236
:10000E00EC4D6011E8497017ED33EC3304600DE4EC
:10001E00FCFFFEFD22E933E8330470F80202E81219
:10002E0002B358046009E4CC24815006285009021A
:10003E0002F22840030202EFC0E0EB4A7044B9809E
:10004E0006D0E0FB0202DEEF4E701CBD8008EBFF17
:10005E00EAFEE9FD80EBE98DF0A4FEE5F00200F783
:10006E00E9CDF9EAFEEBFFEF89F0A4FCE5F0CE89CD
:10007E00F0A42EFFE435F0CD89F0A42DFEE435F08A
:10008E008067EF4E7005BD80D780C3EF8BF0A4ACB8
:10009E00F0EE8BF0A42CFCE435F0F8EF8AF0A42CF3
:1000AE00E5F038FCE433CB8DF0A42CFCE5F03BF806
:1000BE00EE8AF0A42CFCE5F038F8E433CF89F0A4F6
:1000CE002CFCE5F038CF3400CE89F0A42FFFE5F0FC
:1000DE003EFEE433C98DF0A42EFEE5F039CD8AF054
:1000EE00A42FFFE5F03EFEE43DFD33D0E0FB5007CC
:1000FE000BBB000F0202F2EC2CFCEF33FFEE33FED3
:06010E00ED33FD0202CA00
:100114000202F2EC5D046005E8590470030202E88F
:100124001202B3580460F6EC4860F2EC7004FDFE71
:10013400FF22C860DB2481C85009C39860025006BE
:100144000202EF9850CAF582E9294B4A7005AB8246
:100154000202DE75F0007C1A7880C3EF9BEE9AED04
:1001640099400DC3EF9BFFEE9AFEED99FDE842F036
:10017400DC23ACF0D0E0FFD0E0FED0E0FDAB822089
:10018400E7101BEB60BAEC2CFCEF33FFEE33FEED13
:1001940033FD0202CAE803F830E705C0F075F00049
:1001A400EF2FFFEE33FEED33FD40B830E7C280AAF7
:1001B40074F8CC6480CCC86480C8F58204604FC3F2
:1001C400EB9FF5F0EA9E42F0E99D42F0E89C45F091
:1001D400603C501DE5825FFFE582D313CB5BCBF41B
:1001E4002B5582FB50280ABA002409B90020088044
:1001F4001DE5825BFBE582D313CF5FCFF4C3132FDE
:100204005582FF50090EBE00050DBD00010CC3EB65
:100214009FF5F0EA9E42F0E99D42F0E89C45F060CB
:0902240007CC4820E701B3EC22ED
:10022D00ED33EC33600A047003BD8004ECB2E7FCDF
:01023D00229E
:10023E0075F020800E75F010800575F0087D007E3B
:10024E00007F003392D530D50312045FEC3340109B
:10025E00EF33FFEE33FEED33FDEC33FCD5F0ED2244
:0E026E00E5F0247EA2D513CC92E7CDCEFF2280
:10027C00EDD2E7CD33EC3392D524814006E4FFFE7A
:10028C00FDFC22FCE4CFCECDCC24E0501174FF80D9
:10029C00EDC3CC13CCCD13CDCE13CECF13CF047076
:0702AC00F030D5DE02045F13
:1002B300E9D2E7C933E833F892D5EDD2E7CD33EC91
:0702C30033FC5002B2D5220A
:1002CA00EC30E7100FBF000C0EBE00080DBD000495
:1002DA000BEB6014A2D5EB13FCED92E7FD2274FF41
:1002EA00FCFDFEFF22E480F8A2D574FF13FC7D809A
:0302FA00E480EFAE
:030000000206698C
:0C066900787FE4F6D8FD75812C0206B005
:1002FD00BB010CE58229F582E5833AF583E02250B6
:10030D0006E92582F8E622BBFE06E92582F8E222FF
:0D031D00E58229F582E5833AF583E4932219
:10032A00EF8DF0A4A8F0CF8CF0A428CE8DF0A42EE7
:02033A00FE22A1
:10033C00BC000BBE0029EF8DF084FFADF022E4CCA5
:10034C00F875F008EF2FFFEE33FEEC33FCEE9DEC6E
:10035C00984005FCEE9DFE0FD5F0E9E4CEFD22EDB4
:10036C00F8F5F0EE8420D21CFEADF075F008EF2FFE
:10037C00FFED33FD4007985006D5F0F222C398FDEF
:05038C000FD5F0EA228C
:1003910075F008758200EF2FFFEE33FECD33CDCC23
:1003A10033CCC58233C5829BED9AEC99E5829840A6
:1003B1000CF582EE9BFEED9AFDEC99FC0FD5F0D683
:1003C100E4CEFBE4CDFAE4CCF9A88222B800C1B9AD
:1003D1000059BA002DEC8BF084CFCECDFCE5F0CBEB
:1003E100F97818EF2FFFEE33FEED33FDEC33FCEB24
:1003F10033FB10D703994004EB99FB0FD8E5E4F9DF
:10040100FA227818EF2FFFEE33FEED33FDEC33FCCB
:10041100C933C910D7059BE99A4007EC9BFCE99ABF
:10042100F90FD8E0E4C9FAE4CCFB2275F010EF2F04
:10043100FFEE33FEED33FDCC33CCC833C810D70704
:100441009BEC9AE899400AED9BFDEC9AFCE899F83F
:0E0451000FD5F0DAE4CDFBE4CCFAE4C8F922D2
:0E045F00C3E49FFFE49EFEE49DFDE49CFC22AE
:1006750002046DE493A3F8E493A34003F68001F22A
:1006850008DFF48029E493A3F85407240CC8C33386
:10069500C4540F4420C8834004F456800146F6DF55
:1006A500E4800B0102040810204080900AE8E47EF3
:1006B500019360BCA3FF543F30E509541FFEE4934A
:1006C500A360010ECF54C025E060A840B8E493A311
:1006D500FAE493A3F8E493A3C8C582C8CAC583CA3C
:1006E500F0A3C8C582C8CAC583CADFE9DEE780BEF4
:010AEC000009
:00000001FF
